:020000040000FA
:04000000FEEF7FF0A0
:101600000022170000661A00000000C81ABE1AAABD
:101610001A00000000000000000000BE19000000D9
:10162000000000D21A000054686520627574746F5F
:101630006E207761732070726573736564210A0D83
:1016400000006100D4F4D9F46100D8F4DAF4DFC406
:10165000F6F4160EF76EF86A0800F550250AD8A4BD
:1016600043D06100D4F4D9F46100D8F4DAF4DF2A6D
:10167000000E1C6E000E1B6E1BC51FF51CC520F551
:101680001D681E686100D4F4D9F46100D8F4DAF45E
:10169000DFC4F6F4160EF76EF86A0800F550250A56
:1016A000D8A416D06100D4F4D9F46100D8F4DAF4E7
:1016B000DF2A000E2B6E250E2A6E33C52CF534C59D
:1016C0002DF531EC0CF0000E346E010E336E12006D
:1016D0006100D4F4D9F46100D8F4DAF4DF2A000E02
:1016E000346E000E336E12006100D4F4D9F4610040
:1016F000D8F4DAF4DFC4F6F4160EF76EF86A0800D0
:10170000F5502A6E2B6A33C52CF534C52DF531EC16
:101710000CF06100D4F4D9F46100D8F4DAF4DF2AD3
:10172000D2D7AC90000E286E000E296E50EC0DF052
:10173000AC92000E286E000E296E4BEC0DF0AC94AE
:10174000000E286E000E296E5AEC0DF0AC96000EBD
:10175000286E000E296E46EC0DF0000E0201A16FFE
:10176000000EA26F000EA36F000EA46F000EA56FF7
:10177000000EA66F000EA76F000EA86F000EA96FD7
:10178000000EAA6F300EAB6F800EAC6F000EAD6F07
:10179000CF0EAE6F000EAF6F000EB06F000EB16FC8
:1017A000000EB26F000EB36F000E286E000E296E91
:1017B0005FEC0DF0000E286E000E296E55EC0DF05A
:1017C000000E286E000E296E64EC0DF0000E216EE6
:1017D0001200000EBE6E000EBF6E000EC06E3F0EF9
:1017E000C66E700EC76EFD0EC86E000E0401006F4F
:1017F000000E086F000E106F000E016F000E096FD3
:10180000010E116F000E026F000E0A6F000E126FB4
:10181000370E036FF00E0B6F13693F0E046FF00E5F
:101820000C6F1469020E0201616F0D0E726F100EC3
:10183000486F010E126F100E106F000E0401056F3D
:10184000000E066F000E076F000E0D6F000E0E6F7C
:10185000000E0F6F000E156F000E166F000E176F43
:1018600012002C502D10D8B404D02C502D10D8A418
:1018700004D02A5041EC0DF0120020EE04F02C5060
:10188000D9262D50DA22DE50DE10D8B416D020EE44
:1018900004F02C50D9262D50DA2210EE02F02C50F4
:1018A000E1262D50E222DE50E65CE650800A326EE0
:1018B000DE50800A3258D8B0120020EE02F02C50D0
:1018C000D9262D50DA22DE2A000EDD2212003BC579
:1018D0003EF5000E1A6E000E196E12D039C533F5A2
:1018E0003AC534F53E0E356E050E366E3CC537F5FD
:1018F0003DC538F521EC0BF03350192634501A222F
:101900006100F8F4F6F4160EF76EF86A0800F55068
:101910000009D8A4E3D719C539F51AC53AF512005C
:1019200026EC0DF0000E446E4450D8A40BD03AECD7
:101930000DF00009D8B406D0270E3F6E06EC0DF06E
:10194000010EF1D74450D8B4EFD73AEC0DF00009AE
:10195000D8B4E8D7E9D7D69AB490D680000E286ECE
:10196000000E296E78EC0DF0B990D682000E286E2C
:10197000000E296E73EC0DF0BD90D684000E286E1B
:10198000000E296E6EEC0DF01200000E0001D56FF6
:101990008A0ED76F100ED86F220ED96F000EDA6F35
:1019A000000EDB6F020EDC6F000EDD6F000EDE6FCF
:1019B000000EDF6F000ED46F860ED66F1200040E7D
:1019C0000301206F130E1F6F000E216F020E1D6F9B
:1019D000000E1C6F000E286E000E296E69EC0DF0D3
:1019E000B696C00E1E6F1200600E0001AD6F700E35
:1019F000AE6F000EAF6F000EB36F080EB16F000E2A
:101A0000B26F000EB06F000EAC6F1200400E426E4F
:101A1000050E436E000E396E000E3A6E3FC53BF563
:101A2000420E3C6E050E3D6E67EC0CF0120001EEAE
:101A300060F1200EEE6AE806FDE101EE01F1270EED
:101A4000EE6AE806FDE1000190EF0CF0F4EC0CF01A
:101A500091EC0BF0ABEC0CF0DFEC0CF0C5EC0CF007
:101A6000E9EC0BF01200286EB7A2FED76100A0F4DB
:101A7000A3F212000001D4A102D0010E1200000E48
:101A80001200296E295033EC0DF0120028C553F5D1
:101A900029C554F5120028C557F529C558F5120077
:101AA00028C559F529C55AF5120028C547F529C595
:101AB00048F5120028C555F529C556F5120028C568
:101AC00049F529C54AF5120028C545F529C546F549
:101AD000120028C54BF529C54CF5120028C54DF557
:101AE00029C54EF5120028C54FF529C550F512003D
:0A1AF00028C551F529C552F5120072
:04FFFC0017EF0DF0FE
:020000040020DA
:10000000FF0FFF0FFF0FFF0FFF0FFF0FFF0FFF0F80
:10001000FF0FFF0FFF0FFF0FFF0FFF0FFF0FFF0F70
:020000040030CA
:0A000000FFFFF7FF9FFFFFFFFFFF68
:00000001FF
