:020000040000FA
:04000000FEEF7FF0A0
:10160000004E1700000A1B000000007E1B741B60C8
:101610001B000000000000000000005C1A00000039
:10162000000000881B000054686520627574746FA8
:101630006E207761732070726573736564210A0D83
:1016400000006100D4F4D9F46100D8F4DAF4DEC407
:10165000F6F4DDC4F7F4F86A0800F550250AD8A4BA
:1016600034EF0BF036EF0BF086EF0BF06100D4F4A3
:10167000D9F46100D8F4DAF4DE2A000EDD22000E7F
:101680001C6E000E1B6E1BC51FF51CC520F51D68CA
:101690001E686100D4F4D9F46100D8F4DAF4DEC431
:1016A000F6F4DDC4F7F4F86A0800F550250AD8A46A
:1016B0005CEF0BF05EEF0BF077EF0BF06100D4F412
:1016C000D9F46100D8F4DAF4DE2A000EDD22000E2F
:1016D0002B6E250E2A6E33C52CF534C52DF5FFEC87
:1016E0000BF0000E346E010E336EA6EF0BF06100AE
:1016F000D4F4D9F46100D8F4DAF4DE2A000EDD2245
:10170000000E346E000E336EA6EF0BF06100D4F4C1
:10171000D9F46100D8F4DAF4DEC4F6F4DDC4F7F4E9
:10172000F86A0800F5502A6E2B6A33C52CF534C5CB
:101730002DF5FFEC0BF06100D4F4D9F46100D8F47E
:10174000DAF4DE2A000EDD2271EF0BF01200AC900D
:10175000000E286E000E296EABEC0DF0AC92000E60
:10176000286E000E296EA6EC0DF0AC94000E286ECB
:10177000000E296EB5EC0DF0AC96000E286E000E32
:10178000296EA1EC0DF0000E0201A16F000EA26FF8
:10179000000EA36F000EA46F000EA56F000EA66FC3
:1017A000000EA76F000EA86F000EA96F000EAA6FA3
:1017B000300EAB6F800EAC6F000EAD6FCF0EAE6F04
:1017C000000EAF6F000EB06F000EB16F000EB26F63
:1017D000000EB36F000E286E000E296EBAEC0DF0ED
:1017E000000E286E000E296EB0EC0DF0000E286E73
:1017F000000E296EBFEC0DF0000E216E12002C5071
:101800002D10D8B406EF0CF008EF0CF011EF0CF02F
:101810002C502D10D8A40FEF0CF011EF0CF016EF98
:101820000CF02A509CEC0DF049EF0CF020EE04F087
:101830002C50D9262D50DA22DE50DE10D8B423EFFA
:101840000CF025EF0CF040EF0CF020EE04F02C50E3
:10185000D9262D50DA2210EE02F02C50E1262D5020
:10186000E222DE50E65CE650800A326EDE50800AEC
:101870003258D8B03EEF0CF040EF0CF049EF0CF0CE
:1018800020EE02F02C50D9262D50DA22DE2A000E4E
:10189000DD221200000EBE6E000EBF6E000EC06E86
:1018A0003F0EC66E700EC76EFD0EC86E000E0401B0
:1018B000006F000E086F000E106F000E016F000E1B
:1018C000096F010E116F000E026F000E0A6F000EFD
:1018D000126F370E036FF00E0B6F13693F0E046F1C
:1018E000F00E0C6F1469020E0201616F0D0E726F23
:1018F000100E486F010E126F100E106F000E0401D3
:10190000056F000E066F000E076F000E0D6F000EC4
:101910000E6F000E0F6F000E156F000E166F000E8B
:10192000176F120078EC0DF0000E476E4750D8A4E8
:101930009CEF0CF09EEF0CF0B2EF0CF091EC0DF080
:101940000009D8B4A6EF0CF0A8EF0CF0B2EF0CF041
:10195000270E416E160E426E44EC0DF0010E476EDE
:1019600096EF0CF04750D8B4B8EF0CF0BAEF0CF08B
:1019700096EF0CF091EC0DF00009D8A4C2EF0CF03A
:10198000C4EF0CF096EF0CF094EF0CF0FEEF7FF04C
:101990003BC53FF53CC540F5000E1A6E000E196EB2
:1019A000E4EF0CF039C533F53AC534F53F0E356E2A
:1019B000050E366E3DC537F53EC538F521EC0BF00A
:1019C0003350192634501A226100FCF4F6F46100F9
:1019D00000F5F7F4F86A0800F5500009D8A4F3EF11
:1019E0000CF0F5EF0CF0D2EF0CF019C539F51AC573
:1019F0003AF51200D69AB490D680000E286E000EEA
:101A0000296ED3EC0DF0B990D682000E286E000E30
:101A1000296ECEEC0DF0BD90D684000E286E000E1F
:101A2000296EC9EC0DF01200000E0001D56F8A0E70
:101A3000D76F100ED86F220ED96F000EDA6F000E1E
:101A4000DB6F020EDC6F000EDD6F000EDE6F000E2E
:101A5000DF6F000ED46F860ED66F1200040E0301E6
:101A6000206F130E1F6F000E216F020E1D6F000EF0
:101A70001C6F000E286E000E296EC4EC0DF0B69699
:101A8000C00E03011E6F1200430E456E050E466E1A
:101A9000000E396E000E3A6E41C53BF542C53CF56D
:101AA000450E3D6E050E3E6EC8EC0CF01200600E49
:101AB0000001AD6F700EAE6F000EAF6F000EB36F12
:101AC000080EB16F000EB26F000EB06F000EAC6F5B
:101AD000120001EE60F1200EEE6AE806FDE101EE73
:101AE00001F1270EEE6AE806FDE1000192EF0CF02D
:101AF00057EC0DF0A7EC0BF0FAEC0CF02EEC0DF01F
:101B000014EC0DF04AEC0CF01200286EB7A28BEF2B
:101B10000DF08DEF0DF086EF0DF06100A0F4A3F253
:101B200012000001D4B197EF0DF09AEF0DF0010E05
:101B30009BEF0DF0000E1200296E295085EC0DF080
:101B4000120028C556F529C557F5120028C55AF5C3
:101B500029C55BF5120028C55CF529C55DF51200A5
:101B600028C54AF529C54BF5120028C558F529C5E1
:101B700059F5120028C54CF529C54DF5120028C5A8
:101B800048F529C549F5120028C54EF529C54FF578
:101B9000120028C550F529C551F5120028C552F587
:101BA00029C553F5120028C554F529C555F512006D
:04FFFC0069EF0DF0AC
:020000040020DA
:10000000FF0FFF0FFF0FFF0FFF0FFF0FFF0FFF0F80
:10001000FF0FFF0FFF0FFF0FFF0FFF0FFF0FFF0F70
:020000040030CA
:0A000000FFFFF7FF9FFFFFFFFFFF68
:00000001FF
